{
    "_format": "hh-sol-artifact-1",
    "contractName": "Lottery",
    "sourceName": "contracts/Lottery.sol",
    "abi": [
        {
            "inputs": [
                {
                    "internalType": "string",
                    "name": "tokenName",
                    "type": "string"
                },
                {
                    "internalType": "string",
                    "name": "tokenSymbol",
                    "type": "string"
                },
                {
                    "internalType": "uint256",
                    "name": "_purchaseRatio",
                    "type": "uint256"
                },
                {
                    "internalType": "uint256",
                    "name": "_betPrice",
                    "type": "uint256"
                },
                {
                    "internalType": "uint256",
                    "name": "_betFee",
                    "type": "uint256"
                }
            ],
            "stateMutability": "nonpayable",
            "type": "constructor"
        },
        {
            "anonymous": false,
            "inputs": [
                {
                    "indexed": true,
                    "internalType": "address",
                    "name": "previousOwner",
                    "type": "address"
                },
                {
                    "indexed": true,
                    "internalType": "address",
                    "name": "newOwner",
                    "type": "address"
                }
            ],
            "name": "OwnershipTransferred",
            "type": "event"
        },
        {
            "inputs": [],
            "name": "bet",
            "outputs": [],
            "stateMutability": "nonpayable",
            "type": "function"
        },
        {
            "inputs": [],
            "name": "betFee",
            "outputs": [
                {
                    "internalType": "uint256",
                    "name": "",
                    "type": "uint256"
                }
            ],
            "stateMutability": "view",
            "type": "function"
        },
        {
            "inputs": [
                {
                    "internalType": "uint256",
                    "name": "times",
                    "type": "uint256"
                }
            ],
            "name": "betMany",
            "outputs": [],
            "stateMutability": "nonpayable",
            "type": "function"
        },
        {
            "inputs": [],
            "name": "betPrice",
            "outputs": [
                {
                    "internalType": "uint256",
                    "name": "",
                    "type": "uint256"
                }
            ],
            "stateMutability": "view",
            "type": "function"
        },
        {
            "inputs": [],
            "name": "betsClosingTime",
            "outputs": [
                {
                    "internalType": "uint256",
                    "name": "",
                    "type": "uint256"
                }
            ],
            "stateMutability": "view",
            "type": "function"
        },
        {
            "inputs": [],
            "name": "betsOpen",
            "outputs": [
                {
                    "internalType": "bool",
                    "name": "",
                    "type": "bool"
                }
            ],
            "stateMutability": "view",
            "type": "function"
        },
        {
            "inputs": [],
            "name": "closeLottery",
            "outputs": [],
            "stateMutability": "nonpayable",
            "type": "function"
        },
        {
            "inputs": [],
            "name": "getRandomNumber",
            "outputs": [
                {
                    "internalType": "uint256",
                    "name": "randomNumber",
                    "type": "uint256"
                }
            ],
            "stateMutability": "view",
            "type": "function"
        },
        {
            "inputs": [
                {
                    "internalType": "uint256",
                    "name": "closingTime",
                    "type": "uint256"
                }
            ],
            "name": "openBets",
            "outputs": [],
            "stateMutability": "nonpayable",
            "type": "function"
        },
        {
            "inputs": [],
            "name": "owner",
            "outputs": [
                {
                    "internalType": "address",
                    "name": "",
                    "type": "address"
                }
            ],
            "stateMutability": "view",
            "type": "function"
        },
        {
            "inputs": [],
            "name": "ownerPool",
            "outputs": [
                {
                    "internalType": "uint256",
                    "name": "",
                    "type": "uint256"
                }
            ],
            "stateMutability": "view",
            "type": "function"
        },
        {
            "inputs": [
                {
                    "internalType": "uint256",
                    "name": "amount",
                    "type": "uint256"
                }
            ],
            "name": "ownerWithdraw",
            "outputs": [],
            "stateMutability": "nonpayable",
            "type": "function"
        },
        {
            "inputs": [],
            "name": "paymentToken",
            "outputs": [
                {
                    "internalType": "contract LotteryToken",
                    "name": "",
                    "type": "address"
                }
            ],
            "stateMutability": "view",
            "type": "function"
        },
        {
            "inputs": [
                {
                    "internalType": "address",
                    "name": "",
                    "type": "address"
                }
            ],
            "name": "prize",
            "outputs": [
                {
                    "internalType": "uint256",
                    "name": "",
                    "type": "uint256"
                }
            ],
            "stateMutability": "view",
            "type": "function"
        },
        {
            "inputs": [],
            "name": "prizePool",
            "outputs": [
                {
                    "internalType": "uint256",
                    "name": "",
                    "type": "uint256"
                }
            ],
            "stateMutability": "view",
            "type": "function"
        },
        {
            "inputs": [
                {
                    "internalType": "uint256",
                    "name": "amount",
                    "type": "uint256"
                }
            ],
            "name": "prizeWithdraw",
            "outputs": [],
            "stateMutability": "nonpayable",
            "type": "function"
        },
        {
            "inputs": [],
            "name": "purchaseRatio",
            "outputs": [
                {
                    "internalType": "uint256",
                    "name": "",
                    "type": "uint256"
                }
            ],
            "stateMutability": "view",
            "type": "function"
        },
        {
            "inputs": [],
            "name": "purchaseTokens",
            "outputs": [],
            "stateMutability": "payable",
            "type": "function"
        },
        {
            "inputs": [],
            "name": "renounceOwnership",
            "outputs": [],
            "stateMutability": "nonpayable",
            "type": "function"
        },
        {
            "inputs": [
                {
                    "internalType": "uint256",
                    "name": "amount",
                    "type": "uint256"
                }
            ],
            "name": "returnTokens",
            "outputs": [],
            "stateMutability": "nonpayable",
            "type": "function"
        },
        {
            "inputs": [
                {
                    "internalType": "address",
                    "name": "newOwner",
                    "type": "address"
                }
            ],
            "name": "transferOwnership",
            "outputs": [],
            "stateMutability": "nonpayable",
            "type": "function"
        }
    ],
    "bytecode": "0x60806040523480156200001157600080fd5b506040516200250d3803806200250d8339810160408190526200003491620001da565b6200003f33620000af565b84846040516200004f90620000ff565b6200005c9291906200028d565b604051809103906000f08015801562000079573d6000803e3d6000fd5b50600180546001600160a01b0319166001600160a01b039290921691909117905560029290925560035560045550620002bf9050565b600080546001600160a01b038381166001600160a01b0319831681178455604051919092169283917f8be0079c531659141344cd1fd0a4f28419497f9722a3daafe3b4186f6b6457e09190a35050565b6115638062000faa83390190565b634e487b7160e01b600052604160045260246000fd5b60005b838110156200014057818101518382015260200162000126565b50506000910152565b600082601f8301126200015b57600080fd5b81516001600160401b03808211156200017857620001786200010d565b604051601f8301601f19908116603f01168101908282118183101715620001a357620001a36200010d565b81604052838152866020858801011115620001bd57600080fd5b620001d084602083016020890162000123565b9695505050505050565b600080600080600060a08688031215620001f357600080fd5b85516001600160401b03808211156200020b57600080fd5b6200021989838a0162000149565b965060208801519150808211156200023057600080fd5b506200023f8882890162000149565b60408801516060890151608090990151979a919950979695509350505050565b600081518084526200027981602086016020860162000123565b601f01601f19169290920160200192915050565b604081526000620002a260408301856200025f565b8281036020840152620002b681856200025f565b95945050505050565b610cdb80620002cf6000396000f3fe60806040526004361061012a5760003560e01c8063719ce73e116100ab57806395cadc471161006f57806395cadc47146102e6578063990a49f5146102fc578063cfd8a1751461031c578063d1b258ff14610332578063dbdff2c11461035c578063f2fde38b1461036f57600080fd5b8063719ce73e1461024f578063729e91e914610265578063841e6ce9146102855780638adf9c1f1461029b5780638da5cb5b146102c857600080fd5b806333f707d1116100f257806333f707d1146101c55780633ae1786f146101e55780633cc121e6146102055780636fd0981614610225578063715018a61461023a57600080fd5b806311610c251461012f57806318c34965146101465780632b65e0401461016f5780633013ce29146101855780633290ce29146101bd575b600080fd5b34801561013b57600080fd5b5061014461038f565b005b34801561015257600080fd5b5061015c60085481565b6040519081526020015b60405180910390f35b34801561017b57600080fd5b5061015c60065481565b34801561019157600080fd5b506001546101a5906001600160a01b031681565b6040516001600160a01b039091168152602001610166565b610144610504565b3480156101d157600080fd5b506101446101e0366004610b76565b610588565b3480156101f157600080fd5b50610144610200366004610b76565b610767565b34801561021157600080fd5b50610144610220366004610b76565b61079e565b34801561023157600080fd5b5061014461080f565b34801561024657600080fd5b5061014461092a565b34801561025b57600080fd5b5061015c60055481565b34801561027157600080fd5b50610144610280366004610b76565b61093e565b34801561029157600080fd5b5061015c60045481565b3480156102a757600080fd5b5061015c6102b6366004610b8f565b60096020526000908152604090205481565b3480156102d457600080fd5b506000546001600160a01b03166101a5565b3480156102f257600080fd5b5061015c60025481565b34801561030857600080fd5b50610144610317366004610b76565b61096b565b34801561032857600080fd5b5061015c60035481565b34801561033e57600080fd5b5060075461034c9060ff1681565b6040519015158152602001610166565b34801561036857600080fd5b504461015c565b34801561037b57600080fd5b5061014461038a366004610b8f565b610a24565b60075460ff1680156103a2575060085442105b6103e75760405162461bcd60e51b8152602060048201526011602482015270131bdd1d195c9e481a5cc818db1bdcd959607a1b60448201526064015b60405180910390fd5b600454600660008282546103fb9190610bd5565b909155505060035460058054600090610415908490610bd5565b9091555050600a8054600181810183556000929092527fc65a7bb8d6351c1cf70c95a316cc6a92839c986682d98bc35f958f4883f9d2a80180546001600160a01b0319163390811790915590546004546003546001600160a01b0392909216926323b872dd92909130916104899190610bd5565b6040516001600160e01b031960e086901b1681526001600160a01b03938416600482015292909116602483015260448201526064016020604051808303816000875af11580156104dd573d6000803e3d6000fd5b505050506040513d601f19601f820116820180604052508101906105019190610bee565b50565b6001546002546001600160a01b03909116906340c10f199033906105289034610c10565b6040516001600160e01b031960e085901b1681526001600160a01b0390921660048301526024820152604401600060405180830381600087803b15801561056e57600080fd5b505af1158015610582573d6000803e3d6000fd5b50505050565b610590610a9a565b6006548111156105e25760405162461bcd60e51b815260206004820152601960248201527f4e6f7420656e6f756768206665657320636f6c6c65637465640000000000000060448201526064016103de565b80600660008282546105f49190610c27565b9091555050600154604051633950935160e01b8152306004820152602481018390526001600160a01b03909116906339509351906044016020604051808303816000875af115801561064a573d6000803e3d6000fd5b505050506040513d601f19601f8201168201806040525081019061066e9190610bee565b5060015460405163079cc67960e41b8152306004820152602481018390526001600160a01b03909116906379cc6790906044015b600060405180830381600087803b1580156106bc57600080fd5b505af11580156106d0573d6000803e3d6000fd5b5050600254600092503391506106e69084610c50565b604051600081818185875af1925050503d8060008114610722576040519150601f19603f3d011682016040523d82523d6000602084013e610727565b606091505b50509050806107635760405162461bcd60e51b8152602060048201526008602482015267151e11985a5b195960c21b60448201526064016103de565b5050565b60015460405163079cc67960e41b8152336004820152602481018390526001600160a01b03909116906379cc6790906044016106a2565b336000908152600960205260409020548111156107f05760405162461bcd60e51b815260206004820152601060248201526f4e6f7420656e6f756768207072697a6560801b60448201526064016103de565b33600090815260096020526040812080548392906105f4908490610c27565b6008544210156108555760405162461bcd60e51b8152602060048201526011602482015270546f6f20736f6f6e20746f20636c6f736560781b60448201526064016103de565b60075460ff166108985760405162461bcd60e51b815260206004820152600e60248201526d105b1c9958591e4818db1bdcd95960921b60448201526064016103de565b600a541561091e57600a546000906108b09044610c64565b90506000600a82815481106108c7576108c7610c78565b60009182526020808320909101546005546001600160a01b03909116808452600990925260408320805492945090929091610903908490610bd5565b90915550506000600581905561091b90600a90610b44565b50505b6007805460ff19169055565b610932610a9a565b61093c6000610af4565b565b6000811161094b57600080fd5b80156105015761095961038f565b8061096381610c8e565b91505061094b565b610973610a9a565b60075460ff16156109b85760405162461bcd60e51b815260206004820152600f60248201526e2637ba3a32b93c9034b99037b832b760891b60448201526064016103de565b428111610a125760405162461bcd60e51b815260206004820152602260248201527f436c6f73696e672074696d65206d75737420626520696e207468652066757475604482015261726560f01b60648201526084016103de565b6008556007805460ff19166001179055565b610a2c610a9a565b6001600160a01b038116610a915760405162461bcd60e51b815260206004820152602660248201527f4f776e61626c653a206e6577206f776e657220697320746865207a65726f206160448201526564647265737360d01b60648201526084016103de565b61050181610af4565b6000546001600160a01b0316331461093c5760405162461bcd60e51b815260206004820181905260248201527f4f776e61626c653a2063616c6c6572206973206e6f7420746865206f776e657260448201526064016103de565b600080546001600160a01b038381166001600160a01b0319831681178455604051919092169283917f8be0079c531659141344cd1fd0a4f28419497f9722a3daafe3b4186f6b6457e09190a35050565b508054600082559060005260206000209081019061050191905b80821115610b725760008155600101610b5e565b5090565b600060208284031215610b8857600080fd5b5035919050565b600060208284031215610ba157600080fd5b81356001600160a01b0381168114610bb857600080fd5b9392505050565b634e487b7160e01b600052601160045260246000fd5b80820180821115610be857610be8610bbf565b92915050565b600060208284031215610c0057600080fd5b81518015158114610bb857600080fd5b8082028115828204841417610be857610be8610bbf565b81810381811115610be857610be8610bbf565b634e487b7160e01b600052601260045260246000fd5b600082610c5f57610c5f610c3a565b500490565b600082610c7357610c73610c3a565b500690565b634e487b7160e01b600052603260045260246000fd5b600081610c9d57610c9d610bbf565b50600019019056fea2646970667358221220804c6b50ceb7f6f373d4bd843985e96c14edf937f8ca711f7a4fa5c09acb6ae264736f6c6343000813003360806040523480156200001157600080fd5b506040516200156338038062001563833981016040819052620000349162000203565b81816003620000448382620002fc565b506004620000538282620002fc565b50620000659150600090503362000099565b620000917f9f2df0fed2c77648de5860a4cc508cd0818c85b8b8a1ab4ceeef8d981c8956a63362000099565b5050620003c8565b60008281526005602090815260408083206001600160a01b038516845290915290205460ff166200013a5760008281526005602090815260408083206001600160a01b03851684529091529020805460ff19166001179055620000f93390565b6001600160a01b0316816001600160a01b0316837f2f8788117e7eff1d82e926ec794901d17c78024a50270940304540a733656f0d60405160405180910390a45b5050565b634e487b7160e01b600052604160045260246000fd5b600082601f8301126200016657600080fd5b81516001600160401b03808211156200018357620001836200013e565b604051601f8301601f19908116603f01168101908282118183101715620001ae57620001ae6200013e565b81604052838152602092508683858801011115620001cb57600080fd5b600091505b83821015620001ef5785820183015181830184015290820190620001d0565b600093810190920192909252949350505050565b600080604083850312156200021757600080fd5b82516001600160401b03808211156200022f57600080fd5b6200023d8683870162000154565b935060208501519150808211156200025457600080fd5b50620002638582860162000154565b9150509250929050565b600181811c908216806200028257607f821691505b602082108103620002a357634e487b7160e01b600052602260045260246000fd5b50919050565b601f821115620002f757600081815260208120601f850160051c81016020861015620002d25750805b601f850160051c820191505b81811015620002f357828155600101620002de565b5050505b505050565b81516001600160401b038111156200031857620003186200013e565b62000330816200032984546200026d565b84620002a9565b602080601f8311600181146200036857600084156200034f5750858301515b600019600386901b1c1916600185901b178555620002f3565b600085815260208120601f198616915b82811015620003995788860151825594840194600190910190840162000378565b5085821015620003b85787850151600019600388901b60f8161c191681555b5050505050600190811b01905550565b61118b80620003d86000396000f3fe608060405234801561001057600080fd5b50600436106101425760003560e01c806342966c68116100b8578063a217fddf1161007c578063a217fddf146102a6578063a457c2d7146102ae578063a9059cbb146102c1578063d5391393146102d4578063d547741f146102fb578063dd62ed3e1461030e57600080fd5b806342966c681461023c57806370a082311461024f57806379cc67901461027857806391d148541461028b57806395d89b411461029e57600080fd5b8063248a9ca31161010a578063248a9ca3146101bc5780632f2ff15d146101df578063313ce567146101f457806336568abe14610203578063395093511461021657806340c10f191461022957600080fd5b806301ffc9a71461014757806306fdde031461016f578063095ea7b31461018457806318160ddd1461019757806323b872dd146101a9575b600080fd5b61015a610155366004610e96565b610321565b60405190151581526020015b60405180910390f35b610177610358565b6040516101669190610ee4565b61015a610192366004610f33565b6103ea565b6002545b604051908152602001610166565b61015a6101b7366004610f5d565b610402565b61019b6101ca366004610f99565b60009081526005602052604090206001015490565b6101f26101ed366004610fb2565b610426565b005b60405160128152602001610166565b6101f2610211366004610fb2565b610450565b61015a610224366004610f33565b6104d3565b6101f2610237366004610f33565b6104f5565b6101f261024a366004610f99565b610529565b61019b61025d366004610fde565b6001600160a01b031660009081526020819052604090205490565b6101f2610286366004610f33565b610536565b61015a610299366004610fb2565b61054b565b610177610576565b61019b600081565b61015a6102bc366004610f33565b610585565b61015a6102cf366004610f33565b610600565b61019b7f9f2df0fed2c77648de5860a4cc508cd0818c85b8b8a1ab4ceeef8d981c8956a681565b6101f2610309366004610fb2565b61060e565b61019b61031c366004610ff9565b610633565b60006001600160e01b03198216637965db0b60e01b148061035257506301ffc9a760e01b6001600160e01b03198316145b92915050565b60606003805461036790611023565b80601f016020809104026020016040519081016040528092919081815260200182805461039390611023565b80156103e05780601f106103b5576101008083540402835291602001916103e0565b820191906000526020600020905b8154815290600101906020018083116103c357829003601f168201915b5050505050905090565b6000336103f881858561065e565b5060019392505050565b600033610410858285610782565b61041b8585856107fc565b506001949350505050565b600082815260056020526040902060010154610441816109a0565b61044b83836109aa565b505050565b6001600160a01b03811633146104c55760405162461bcd60e51b815260206004820152602f60248201527f416363657373436f6e74726f6c3a2063616e206f6e6c792072656e6f756e636560448201526e103937b632b9903337b91039b2b63360891b60648201526084015b60405180910390fd5b6104cf8282610a30565b5050565b6000336103f88185856104e68383610633565b6104f09190611073565b61065e565b7f9f2df0fed2c77648de5860a4cc508cd0818c85b8b8a1ab4ceeef8d981c8956a661051f816109a0565b61044b8383610a97565b6105333382610b56565b50565b610541823383610782565b6104cf8282610b56565b60009182526005602090815260408084206001600160a01b0393909316845291905290205460ff1690565b60606004805461036790611023565b600033816105938286610633565b9050838110156105f35760405162461bcd60e51b815260206004820152602560248201527f45524332303a2064656372656173656420616c6c6f77616e63652062656c6f77604482015264207a65726f60d81b60648201526084016104bc565b61041b828686840361065e565b6000336103f88185856107fc565b600082815260056020526040902060010154610629816109a0565b61044b8383610a30565b6001600160a01b03918216600090815260016020908152604080832093909416825291909152205490565b6001600160a01b0383166106c05760405162461bcd60e51b8152602060048201526024808201527f45524332303a20617070726f76652066726f6d20746865207a65726f206164646044820152637265737360e01b60648201526084016104bc565b6001600160a01b0382166107215760405162461bcd60e51b815260206004820152602260248201527f45524332303a20617070726f766520746f20746865207a65726f206164647265604482015261737360f01b60648201526084016104bc565b6001600160a01b0383811660008181526001602090815260408083209487168084529482529182902085905590518481527f8c5be1e5ebec7d5bd14f71427d1e84f3dd0314c0f7b2291e5b200ac8c7c3b925910160405180910390a3505050565b600061078e8484610633565b905060001981146107f657818110156107e95760405162461bcd60e51b815260206004820152601d60248201527f45524332303a20696e73756666696369656e7420616c6c6f77616e636500000060448201526064016104bc565b6107f6848484840361065e565b50505050565b6001600160a01b0383166108605760405162461bcd60e51b815260206004820152602560248201527f45524332303a207472616e736665722066726f6d20746865207a65726f206164604482015264647265737360d81b60648201526084016104bc565b6001600160a01b0382166108c25760405162461bcd60e51b815260206004820152602360248201527f45524332303a207472616e7366657220746f20746865207a65726f206164647260448201526265737360e81b60648201526084016104bc565b6001600160a01b0383166000908152602081905260409020548181101561093a5760405162461bcd60e51b815260206004820152602660248201527f45524332303a207472616e7366657220616d6f756e7420657863656564732062604482015265616c616e636560d01b60648201526084016104bc565b6001600160a01b03848116600081815260208181526040808320878703905593871680835291849020805487019055925185815290927fddf252ad1be2c89b69c2b068fc378daa952ba7f163c4a11628f55a4df523b3ef910160405180910390a36107f6565b6105338133610c88565b6109b4828261054b565b6104cf5760008281526005602090815260408083206001600160a01b03851684529091529020805460ff191660011790556109ec3390565b6001600160a01b0316816001600160a01b0316837f2f8788117e7eff1d82e926ec794901d17c78024a50270940304540a733656f0d60405160405180910390a45050565b610a3a828261054b565b156104cf5760008281526005602090815260408083206001600160a01b0385168085529252808320805460ff1916905551339285917ff6391f5c32d9c69d2a47ea670b442974b53935d1edc7fd64eb21e047a839171b9190a45050565b6001600160a01b038216610aed5760405162461bcd60e51b815260206004820152601f60248201527f45524332303a206d696e7420746f20746865207a65726f20616464726573730060448201526064016104bc565b8060026000828254610aff9190611073565b90915550506001600160a01b038216600081815260208181526040808320805486019055518481527fddf252ad1be2c89b69c2b068fc378daa952ba7f163c4a11628f55a4df523b3ef910160405180910390a35050565b6001600160a01b038216610bb65760405162461bcd60e51b815260206004820152602160248201527f45524332303a206275726e2066726f6d20746865207a65726f206164647265736044820152607360f81b60648201526084016104bc565b6001600160a01b03821660009081526020819052604090205481811015610c2a5760405162461bcd60e51b815260206004820152602260248201527f45524332303a206275726e20616d6f756e7420657863656564732062616c616e604482015261636560f01b60648201526084016104bc565b6001600160a01b0383166000818152602081815260408083208686039055600280548790039055518581529192917fddf252ad1be2c89b69c2b068fc378daa952ba7f163c4a11628f55a4df523b3ef910160405180910390a3505050565b610c92828261054b565b6104cf57610c9f81610ce1565b610caa836020610cf3565b604051602001610cbb929190611086565b60408051601f198184030181529082905262461bcd60e51b82526104bc91600401610ee4565b60606103526001600160a01b03831660145b60606000610d028360026110fb565b610d0d906002611073565b67ffffffffffffffff811115610d2557610d25611112565b6040519080825280601f01601f191660200182016040528015610d4f576020820181803683370190505b509050600360fc1b81600081518110610d6a57610d6a611128565b60200101906001600160f81b031916908160001a905350600f60fb1b81600181518110610d9957610d99611128565b60200101906001600160f81b031916908160001a9053506000610dbd8460026110fb565b610dc8906001611073565b90505b6001811115610e40576f181899199a1a9b1b9c1cb0b131b232b360811b85600f1660108110610dfc57610dfc611128565b1a60f81b828281518110610e1257610e12611128565b60200101906001600160f81b031916908160001a90535060049490941c93610e398161113e565b9050610dcb565b508315610e8f5760405162461bcd60e51b815260206004820181905260248201527f537472696e67733a20686578206c656e67746820696e73756666696369656e7460448201526064016104bc565b9392505050565b600060208284031215610ea857600080fd5b81356001600160e01b031981168114610e8f57600080fd5b60005b83811015610edb578181015183820152602001610ec3565b50506000910152565b6020815260008251806020840152610f03816040850160208701610ec0565b601f01601f19169190910160400192915050565b80356001600160a01b0381168114610f2e57600080fd5b919050565b60008060408385031215610f4657600080fd5b610f4f83610f17565b946020939093013593505050565b600080600060608486031215610f7257600080fd5b610f7b84610f17565b9250610f8960208501610f17565b9150604084013590509250925092565b600060208284031215610fab57600080fd5b5035919050565b60008060408385031215610fc557600080fd5b82359150610fd560208401610f17565b90509250929050565b600060208284031215610ff057600080fd5b610e8f82610f17565b6000806040838503121561100c57600080fd5b61101583610f17565b9150610fd560208401610f17565b600181811c9082168061103757607f821691505b60208210810361105757634e487b7160e01b600052602260045260246000fd5b50919050565b634e487b7160e01b600052601160045260246000fd5b808201808211156103525761035261105d565b7f416363657373436f6e74726f6c3a206163636f756e74200000000000000000008152600083516110be816017850160208801610ec0565b7001034b99036b4b9b9b4b733903937b6329607d1b60179184019182015283516110ef816028840160208801610ec0565b01602801949350505050565b80820281158282048414176103525761035261105d565b634e487b7160e01b600052604160045260246000fd5b634e487b7160e01b600052603260045260246000fd5b60008161114d5761114d61105d565b50600019019056fea264697066735822122089166d5999506a4b674fd958b220e0103ceff3ce23952d11f1c0c45a0e177c2464736f6c63430008130033",
    "linkReferences": {},
    "deployedLinkReferences": {}
}